:100000000C9462000C948A000C948A000C948A0070
:100010000C948A000C948A000C948A000C948A0038
:100020000C948A000C948A000C948A000C948A0028
:100030000C948A000C948A000C948A000C948A0018
:100040000C941D030C948A000C948A000C948A0072
:100050000C948A000C948A000C948A000C948A00F8
:100060000C948A000C948A00000000080002010031
:100070000003040700000000000000000102040863
:100080001020408001020408102001020408102002
:10009000040404040404040402020202020203032E
:1000A00003030303000000002300260029000000D2
:1000B0000000250028002B0000000000240027007D
:1000C0002A00900111241FBECFEFD8E0DEBFCDBFC4
:1000D00011E0A0E0B1E0E6E2FEE002C005900D9282
:1000E000A836B107D9F721E0A8E6B1E001C01D921A
:1000F000AF38B207E1F710E0C4ECD0E004C02297BB
:10010000FE010E940D07C23CD107C9F70E94B70546
:100110000C9411070C940000CF92DF92EF92FF92A3
:100120000F931F93E82FF92F05C0015011092109E2
:10013000310961F1908196239417B9F305C00150FC
:1001400011092109310911F1908196239413F7CFF8
:10015000C12CD12CE12CF12C0AC08FEFC81AD80A7F
:10016000E80AF80A0C151D052E053F0579F0808177
:100170008623841791F36C2D7D2D8E2D9F2D1F913D
:100180000F91FF90EF90DF90CF90089560E070E0C6
:1001900080E090E01F910F91FF90EF90DF90CF9063
:1001A000089520E042E060E18EE691E00E9459026D
:1001B00061E08CE00E94330460E08BE00E94330435
:1001C00040E060E08EE691E00E943F0260E071E076
:1001D0008EE691E00E940C0541E060E08EE691E041
:1001E0000E943F026FE071E08EE691E00E940C05F4
:1001F00060ED77E080E090E00E948A038EE691E077
:100200000E94380240E060E08EE691E00E943F02EA
:100210006FE171E08EE691E00E940C0541E060E044
:100220008EE691E00E943F026FE271E08EE691E07F
:100230000E940C0560ED77E080E090E00E948A0368
:100240008EE691E00C94380260E08CE00E946C0431
:1002500082E090E00E94C40361E08CE00E946C04A4
:100260008AE090E00E94C40360E08CE00E946C048D
:1002700020E432E44FE050E061E08BE00E94A20411
:1002800060936A0170936B0180936C0190936D0190
:100290000E94FA0526E933E44BE05DE30E948606FE
:1002A00020E030E040E05FE30E9486060E94C70540
:1002B000709369016093680140E060E08EE691E030
:1002C0000E943F0260E471E08EE691E00E940C051E
:1002D0006AE070E080E090E00E948A0341E060E024
:1002E0008EE691E00E943F0261E571E08EE691E0CA
:1002F0000E940C0560916801709169014AE050E02C
:100300008EE691E00E94AE056BE571E08EE691E02D
:100310000E940C056AE070E080E090E00C948A0393
:10032000CF92EF920F9387E0C82E96E0E92E05E07A
:1003300024E043E062E08EE691E00E94F7020F9134
:10034000EF90CF900895CF93DF93EC0160E08E8122
:100350000E946C0481E090E00E94C40361E08E8101
:100360000E946C0481E090E00E94C40360E08E81F2
:100370000E946C0484E690E0DF91CF910C94C4035A
:10038000EF92FF920F931F93CF93DF938C01C0E006
:10039000D0E0E62EF12CB7010C2E02C075956795C2
:1003A0000A94E2F76170F801EC0FFD1F87810E944B
:1003B0006C042196C430D10571F7C801DF91CF914B
:1003C0001F910F91FF90EF900C94A301EF92FF9279
:1003D0000F931F93CF93DF938C01C0E0D0E0E62E04
:1003E000F12CB7010C2E02C0759567950A94E2F7BF
:1003F0006170F801EC0FFD1F87810E946C0421964B
:10040000C830D10571F7C801DF91CF911F910F91CD
:10041000FF90EF900C94A3011F93CF93DF93EC0117
:10042000162F642F8C810E946C048D818F3F19F0F0
:1004300060E00E946C048F85612F84FF06C0CE01AE
:10044000DF91CF911F910C94E60170E084E07595E7
:1004500067958A95E1F7CE010E94C001612FCE0118
:10046000DF91CF911F910C94C00140E00C940C02DD
:1004700061E00E94350280ED97E00C94C4034430A3
:1004800008F043E0FC012389421710F04FEF420FC0
:10049000FC01E40FF11D2489260F2068622F0C94C3
:1004A0003502FC016089262F2460208B6C600C943F
:1004B00035020F931F93CF93DF93EC01423018F076
:1004C0008F8588608F874B8B1C8A80E48D8B6E8B29
:1004D00070E0605C7F4F6F8B222329F0413019F46C
:1004E0008F8584608F8761E08C810E9433048D81C9
:1004F0008F3F19F061E00E94330461E08E810E9419
:10050000330400E010E08F8584FF03C088E090E0B2
:1005100002C084E090E00817190754F4FE01E00FD0
:10052000F11F61E087810E9433040F5F1F4FEBCF03
:1005300080E593EC0E94C40360E08C810E946C040F
:1005400060E08E810E946C048D818F3F19F060E025
:100550000E946C046F8564FD1DC063E0CE010E94A3
:10056000C00184E991E10E94C40363E0CE010E94CE
:10057000C00184E991E10E94C40363E0CE010E94BE
:10058000C00186E990E00E94C40362E0CE010E94AF
:10059000C00116C06062CE010E94350284E991E17B
:1005A0000E94C4036F856062CE010E94350286E915
:1005B00090E00E94C4036F856062CE010E94350204
:1005C0006F856062CE010E94350284E0888BCE0187
:1005D0000E945102CE010E94380282E0898B66E0BF
:1005E000CE01DF91CF911F910F910C943502CF92E4
:1005F000EF920F93FC011382128284E691E09183C3
:10060000808364838FEF8583468327830087E18619
:10061000C2861386148615861686178620E041E06A
:1006200060E1CF010F91EF90CF900C94590241E01F
:100630000E940C0281E090E008951F920F920FB685
:100640000F9211242F933F938F939F93AF93BF9358
:100650008091870190918801A0918901B0918A01D0
:100660003091860123E0230F2D3720F40196A11D40
:10067000B11D05C026E8230F0296A11DB11D2093D0
:1006800086018093870190938801A0938901B0939C
:100690008A0180918B0190918C01A0918D01B09184
:1006A0008E010196A11DB11D80938B0190938C0149
:1006B000A0938D01B0938E01BF91AF919F918F91C7
:1006C0003F912F910F900FBE0F901F9018953FB73D
:1006D000F89480918B0190918C01A0918D01B09143
:1006E0008E0126B5A89B05C02F3F19F00196A11DCC
:1006F000B11D3FBF6627782F892F9A2F620F711D7A
:10070000811D911D42E0660F771F881F991F4A9532
:10071000D1F708958F929F92AF92BF92CF92DF92BE
:10072000EF92FF926B017C010E9467034B015C0119
:10073000C114D104E104F104F1F00E94C6050E9445
:100740006703681979098A099B09683E7340810526
:10075000910570F321E0C21AD108E108F10888EE92
:10076000880E83E0981EA11CB11CC114D104E104C1
:10077000F10429F7DDCFFF90EF90DF90CF90BF908D
:10078000AF909F908F9008958230910538F0880F38
:10079000991F880F991F05970197F1F7089578948D
:1007A00084B5826084BD84B5816084BD85B5826076
:1007B00085BD85B5816085BDEEE6F0E08081816014
:1007C0008083E1E8F0E01082808182608083808114
:1007D00081608083E0E8F0E0808181608083E1EBEC
:1007E000F0E0808184608083E0EBF0E080818160D4
:1007F0008083EAE7F0E0808184608083808182608A
:100800008083808181608083808180688083109272
:10081000C1000895833081F028F4813099F082304E
:10082000A1F008958730A9F08830B9F08430D1F470
:10083000809180008F7D03C0809180008F778093AE
:100840008000089584B58F7702C084B58F7D84BD04
:1008500008958091B0008F7703C08091B0008F7DA4
:100860008093B0000895CF93DF9390E0FC01E458AB
:10087000FF4F2491FC01E057FF4F8491882349F1F9
:1008800090E0880F991FFC01E854FF4FA591B491A7
:1008900082559F4FFC01C591D4919FB7611108C04B
:1008A000F8948C91209582238C93888182230AC0AE
:1008B000623051F4F8948C91322F309583238C93CD
:1008C0008881822B888304C0F8948C91822B8C932E
:1008D0009FBFDF91CF9108950F931F93CF93DF9325
:1008E0001F92CDB7DEB7282F30E0F901E859FF4F4E
:1008F0008491F901E458FF4F1491F901E057FF4F3B
:1009000004910023C9F0882321F069830E940A041E
:100910006981E02FF0E0EE0FFF1FE255FF4FA59138
:10092000B4919FB7F8948C91611103C01095812305
:1009300001C0812B8C939FBF0F90DF91CF911F91AE
:100940000F9108950F931F93762F90E0FC01E458C8
:10095000FF4F6491FC01E057FF4FE4917111762F36
:10096000F0E0EE0FFF1FEC55FF4F85919491890148
:100970009A013F70472F0E948C0061157105810517
:10098000910531F06F5F7F4F8F4F9F4F9F7003C076
:1009900060E070E0CB011F910F910895CF92DF923C
:1009A000EF92FF920F931F93CF93DF937C016A0125
:1009B000EB0100E010E00C151D0571F06991D70105
:1009C000ED91FC910190F081E02DC7010995892BF3
:1009D00019F00F5F1F4FEFCFC801DF91CF911F912B
:1009E0000F91FF90EF90DF90CF9008956115710502
:1009F00081F0DB010D900020E9F7AD014150510974
:100A0000461B570BDC01ED91FC910280F381E02D38
:100A1000099480E090E008950C94F604DC01ED91D7
:100A2000FC910190F081E02D09948F929F92AF92FA
:100A3000BF92DF92EF92FF920F931F93CF93DF93BA
:100A4000CDB7DEB7A1970FB6F894DEBF0FBECDBF0E
:100A50007C01F42FD52ECB0119A2223008F42AE014
:100A60008E010F5D1F4F822E912CA12CB12C6F2F68
:100A70007D2DA50194010E94E906F22FD32ECA0113
:100A8000015011096A3014F4E0E301C0E7E3E60F16
:100A9000D801EC93232B242B252B49F7B801C70150
:100AA0000E94F604A1960FB6F894DEBF0FBECDBF2C
:100AB000DF91CF911F910F91FF90EF90DF90BF904A
:100AC000AF909F908F900895CF92DF92EF92FF9218
:100AD0000F931F93CF93DF93EC016A017B012115E4
:100AE000310579F4E881F9810190F081E02D642FDE
:100AF000DF91CF911F910F91FF90EF90DF90CF90FA
:100B000009942A303105E9F477FF1AC06DE20E949A
:100B10000E058C0144275527BA014C195D096E0951
:100B20007F092AE0CE010E941505800F911FDF91F9
:100B3000CF911F910F91FF90EF90DF90CF9008958C
:100B40002AE0B701A601CE01DF91CF911F910F914D
:100B5000FF90EF90DF90CF900C9415059A01AB01B8
:100B6000662757FD6095762F0C94640508950E94C2
:100B7000CF030E94B6050E94D100C0E0D0E00E94E1
:100B800024012097E1F30E940000F9CF089504D0DA
:100B90006894B111B5C0089598D088F09F5790F02F
:100BA000B92F9927B751A0F0D1F0660F771F881F92
:100BB000991F1AF0BA95C9F712C0B13081F09FD0D1
:100BC000B1E008959CC0672F782F8827B85F39F06F
:100BD000B93FCCF3869577956795B395D9F73EF4F1
:100BE00090958095709561957F4F8F4F9F4F089599
:100BF000E89409C097FB3EF49095809570956195B7
:100C00007F4F8F4F9F4F9923A9F0F92F96E9BB276C
:100C10009395F695879577956795B795F111F8CFE8
:100C2000FAF4BB0F11F460FF1BC06F5F7F4F8F4F53
:100C30009F4F16C0882311F096E911C0772321F049
:100C40009EE8872F762F05C0662371F096E8862FE1
:100C500070E060E02AF09A95660F771F881FDAF738
:100C6000880F9695879597F9089597F99F6780E87B
:100C700070E060E008959FEF80EC089500240A94EE
:100C80001616170618060906089500240A94121667
:100C90001306140605060895092E0394000C11F49A
:100CA000882352F0BB0F40F4BF2B11F460FF04C047
:100CB0006F5F7F4F8F4F9F4F089557FD9058440FA0
:100CC000551F59F05F3F71F04795880F97FB991FAB
:100CD00061F09F3F79F08795089512161306140668
:100CE000551FF2CF4695F1DF08C0161617061806F5
:100CF000991FF1CF86957105610508940895E894D0
:100D0000BB2766277727CB0197F908950BD0C4CF6F
:100D1000B5DF28F0BADF18F0952309F0A6CFABCFE6
:100D20001124EECFCADFA0F3959FD1F3950F50E0C9
:100D3000551F629FF001729FBB27F00DB11D639F8D
:100D4000AA27F00DB11DAA1F649F6627B00DA11D33
:100D5000661F829F2227B00DA11D621F739FB00DD9
:100D6000A11D621F839FA00D611D221F749F332749
:100D7000A00D611D231F849F600D211D822F762FE2
:100D80006A2F11249F5750408AF0E1F088234AF0DF
:100D9000EE0FFF1FBB1F661F771F881F915050402B
:100DA000A9F79E3F510570F060CFAACF5F3FECF3EB
:100DB000983EDCF3869577956795B795F795E79517
:100DC0009F5FC1F7FE2B880F911D9695879597F928
:100DD0000895A1E21A2EAA1BBB1BFD010DC0AA1F7C
:100DE000BB1FEE1FFF1FA217B307E407F50720F094
:100DF000A21BB30BE40BF50B661F771F881F991F0F
:100E00001A9469F760957095809590959B01AC0157
:100E1000BD01CF010895EE0FFF1F0590F491E02D65
:060E20000994F894FFCFD5
:100E2600202044697374616E6365202020200020B1
:100E3600204D6561737572656D656E7420200020A6
:100E46002020204D6164652042792020202000204A
:100E56002020204A6565742E6F72672020202000AE
:100E660044697374616E6365204D65617375722E96
:100E76000044697374616E63653A0020436D200017
:080E8600000000001703CE0478
:00000001FF
